010001010009900000RACAO QUATREE KG                                  000000000000000011000000000000000000000000000000000000000000000000000000000000000000000001000000000000000000000000000010010000000000000000000000 
010123456012000000BEBEDOURO AVES 2L CROSCA                          000000000000000011000000000000000000000000000000000000000000000000000000000000000000000001000000000000000000000000000010010000000000000000000000 
010010338012000000REGADOR PLASTICO 10L CCRI                         000000000000000011000000000000000000000000000000000000000000000000000000000000000000000001000000000000000000000000000010010000000000000000000000 
010000100012000000EMPADA DE BACON                                   000000000000000011000000000000000000000000000000000000000000000000000000000000000000000001000000000000000000000000000010010000000000000000000000 
010112021012000000CALCULADORA DERMATECK                             000000000000000011000000000000000000000000000000000000000000000000000000000000000000000001000000000000000000000000000010010000000000000000000000 
010091129021387000KIT XTZ 250 Z TENERE 10 1                         000000000000000011000000000000000000000000000000000000000000000000000000000000000000000001000000000000000000000000000010010000000000000000000000 
010011976001000000PRODUTO BALANCA TESTE 2                           000000000000000011000000000000000000000000000000000000000000000000000000000000000000000001000000000000000000000000000010010000000000000000000000 
